:100000000C94B5000C94D2000C94D2000C94D20045
:100010000C94D2000C94D2000C94D2000C94D20018
:100020000C94D2000C94D2000C94D2000C94D20008
:100030000C94D2000C94D2000C94D2000C94D200F8
:100040000C94D2000C94D2000C94D2000C94D200E8
:100050000C94D2000C94D2000C94D2000C94D200D8
:100060000C94D2000C94D2006E616E00696E660032
:1000700000407A10F35A00A0724E18090010A5D45F
:10008000E80000E87648170000E40B54020000CABC
:100090009A3B000000E1F505000080969800000002
:1000A00040420F000000A086010000001027000061
:1000B0000000E803000000006400000000000A00E7
:1000C000000000000100000000002C76D888DC67EA
:1000D0004F0823DFC1DFAE59E1B1B796E5E3E45342
:1000E000C63AE651997696E8E6C28426EB898C9B5F
:1000F00062ED407C6FFCEFBC9C9F40F2BAA56FA5FF
:10010000F490055A2AF75C936B6CF9676DC11BFC80
:10011000E0E40D47FEF520E6B500D0ED902E03009B
:10012000943577050080841E080000204E0A0000E8
:1001300000C80C333333330F986E12831141EF8DA7
:100140002114893BE65516CFFEE6DB18D1844B38E7
:100150001BF77C1D901DA4BBE424203284725E2218
:100160008100C9F124ECA1E53D2711241FBECFEF8A
:10017000D8E0DEBFCDBF11E0A0E0B1E0EEE3F2E1F8
:1001800002C005900D92A03BB107D9F721E0A0EB8A
:10019000B1E001C01D92A83BB207E1F70E94BE0189
:1001A0000C941D090C94000020918400309185006E
:1001B0008091840090918500821B930B80389E4330
:1001C000B8F30895CF93DF93EC01209719F4DF91F2
:1001D000CF9108950E94D4002197F7CF9C0181E030
:1001E00086BB86E090E019992BC081E086BB86E053
:1001F00090E0199B2FC081E086BB40918400509114
:10020000850060E070E080E090E0E1E08217930715
:100210008CF120918400309185002417350710F46B
:1002200061507109072E000C880B990BCB017727C1
:100230006627241B350B620F731F811D911D0895C6
:10024000B09BD1CF41E046BB019769F660E070E01A
:10025000CB010895B09BCDCF41E046BB0197B1F3F0
:10026000C8CFB09B07C0E6BB6F5F7F4F6130F4E043
:100270007F0764F71999F5CF199B02C00196C6CF85
:10028000B09BFACFE6BB6F5F7F4F6130F4E07F0732
:100290009CF3DCCF80E091E09093B5018093B401B2
:1002A000519A50981092C50080E18093C400E1EC0F
:1002B000F0E080818860808380818061808386E037
:1002C0008093C200E0ECF0E080818260808308953A
:1002D0009091C00095FFFCCF8093C6000895CF9306
:1002E000C82F8A3019F48DE00E9468018C2F0E947B
:1002F000680180E090E0CF9108958091C00087FF71
:10030000FCCF8091C60008958091C000881F882787
:10031000881F0895CF93DF93EC018991811103C069
:10032000DF91CF9108950E946801F7CFCF92DF92BD
:10033000EF92FF921F93CF93DF93EC01E12CF12C0E
:10034000615071096B010E947D01182F0E946801A4
:100350001A3051F41882C701DF91CF911F91FF909D
:10036000EF90DF90CF9008951D30A1F319938FEF98
:10037000E81AF80ACE14DF0431F7ECCF0E944A01E4
:100380002198299A8091810081608093810084EF77
:1003900091E00E94E2008EE091E00E9493080FE855
:1003A00011E08CE6E82E81E0F82E91E8C92E91E06C
:1003B000D92ECBE8D1E084E690E00E94EE004B011C
:1003C0005C01181419041A041B040CF055C0C50173
:1003D000B4010E942F0620E23CEB4EEB5EE40E944B
:1003E000BB059B01AC0160E070E080E89FE30E94E8
:1003F000BB052B013C01BF92AF929F928F927F92DF
:100400008F935F926F93FF92EF920E947D0820E09E
:1004100030E74EE955E4642D752D862D972D0E9409
:10042000BB069B01AC016CEE71E588EB9FE30E947B
:10043000BB0520E034E244E759E40E94BB069F93E9
:100440008F937F936F93DF92CF920E947D08DF930B
:10045000CF930E947D08DF93CF930E947D088DB7D4
:100460009EB744960FB6F8949EBF0FBE8DBF88EC22
:1004700090E00E94E2009FCF1F930F930E947D089F
:100480000F900F90F4CFADE0B0E0E9E4F2E00C940F
:1004900028077C013B015A01FC01178216828381E7
:1004A00081FF45C3F7012381F30123FD859123FFDC
:1004B00081913F01811509F441C0853239F423FD52
:1004C000959123FF91913F01953239F4B70190E066
:1004D0000E944D0865015601E5CF10E0912C812C5A
:1004E000F0E28F1608F03CC09B3279F160F4903254
:1004F00071F1933291F19E3209F048C086FC1EC022
:10050000689486F806C09D3229F1903359F56894B5
:1005100080F8F30123FD959123FF91913F01911103
:10052000DFCF082D097F903709F4C3C208F0B9C2A4
:10053000983509F4C0C29F3609F4C2C2F70186811A
:1005400097812D96E2E10C944407689481F86894B1
:1005500082F8DFCF689483F8DCCF689484F8D9CF31
:1005600087FC1CC080ED890F8A3028F686FE06C005
:100570003AE0139F800D1124182FCBCF4AE0949EB0
:10058000800D1124982E689485F8C3CF9C3619F4F9
:10059000689487F8BECF983609F4BBCF8BEB890FF0
:1005A000833008F041C0689484F8905E86FE16E0BF
:1005B000582D5F73852E953609F03EC0689486F8F5
:1005C00087FE44C0812F1C3308F08BE32224239440
:1005D000280E27E0F50161917191819191916F0150
:1005E000022DAE014F5F5F4F0E945F075C014980A3
:1005F00040FE03C00DE243FE09C00BE281FC06C0D1
:1006000082FA002700F90295000F007EF42DFC709D
:100610005F2EF115C1F101118DC224E0512C92160B
:1006200008F49FC283E08BC28BE9890F833008F006
:1006300041C1E89484F8BACF963619F4689487F8E3
:10064000BFCF111509F4BCCF1150BACF212F1830EC
:1006500010F027E017E0212CBDCF81108052B701A8
:1006600090E00E944D080F5F1F4FF80184918111A7
:10067000F4CF511409F42FCFB70180E290E00E942B
:100680004D085A94F6CF87FE32C0822D8A0D44FE63
:1006900004C09A81913309F48150222423941816BE
:1006A00034F4282EF9E08F1710F088E0282E87FE0A
:1006B00046C0C501B7FE02C080E090E0019601117E
:1006C0000196111531F0212F30E02F5F3F4F820F3F
:1006D000931F8915910514F4592C581A882D897087
:1006E000811137C051102EC00115E1F134C086FCD4
:1006F000DECFE12FF0E01A151B043CF02CEFA21620
:100700002FEFB20614F0689487F8329641E050E07B
:100710004C0F5D1FE40FF51F01C01150111519F0AA
:1007200082918033D1F387FE0AC022242394210EC4
:10073000A116B10414F41A19BACF10E0B8CF85E0AD
:1007400090E0BDCFB70180E290E00E944D085A943E
:10075000C9CF011529F0B701802F90E00E944D0804
:1007600083FC02C051103EC087FE56C04501B7FE53
:1007700002C0812C912CC50188199909E1E0F0E0B3
:10078000EC0FFD1FE80FF91FFD87EC87950122197B
:1007900031091901012F10E0119501951109A814D3
:1007A000B9043CF12814390424F5EC85FD858181D8
:1007B000F1E08F1A91082C853D852F5F3F4F3D87D3
:1007C0002C8780169106BCF0B70190E00E944D087E
:1007D0003FEF8316930619F7B7018EE290E00E946F
:1007E0004D08DDCFB70180E390E00E944D085A9498
:1007F000B9CF80E3DDCFA814B90439F49A819633D8
:1008000048F4953311F444FE05C0B70190E00E940E
:100810004D082FCF81E3F9CF8A81813311F0E8941D
:1008200044F8B70190E00E944D08111125C085E4FD
:1008300090E084FC02C085E690E0B7010E944D087C
:10084000B7FC05C0A114B10471F544FE2CC0B194ED
:10085000A194B1088DE2B70190E00E944D0880E3B9
:100860005AE0A516B1040CF5B70190E00E944D08BE
:10087000B701C501C096CBCFB7018EE290E00E94D0
:100880004D081E5F02E0802F0F5FE1E0F0E0EC0F0B
:10089000FD1FE80FF11D8081B70190E00E944D0817
:1008A0000113F1CFC4CF8BE2D6CF8F5F4AE0A41AF9
:1008B000B108D6CF933609F482C0933709F495C0B6
:1008C000933509F4A1C0943619F0993609F0CEC0D9
:1008D000F50187FEC3C061917191819191916F0182
:1008E000F82DFF768F2E97FF09C090958095709513
:1008F00061957F4F8F4F9F4F689487F82AE030E0D3
:10090000AE014F5F5F4F5A010E94BF08B82EBA1860
:100910005B2C082D86FE0AC00E7FB11638F484FECB
:1009200004C082FC02C0082D0E7E512E04FFD8C0E8
:10093000FE01EB0DF11D8081803309F0CAC0097EF4
:1009400003FD0EC000FFDBC01B2D591418F4190D58
:100950001519592C892D8519951408F480E0580E25
:10096000591408F0CEC09518592C04FFCCC0B7011B
:1009700080E390E00E944D0802FF09C088E590E006
:1009800001FD02C088E790E0B7010E944D08B11652
:1009900008F4C6C0BA940B2D10E00F5F1F4FCE01B4
:1009A00001965C01080F191FF80182918F01B701B0
:1009B00090E00E944D08A016B106B1F75ACE65012D
:1009C00082E0C80ED11CF5018081898301E010E02E
:1009D0009E012F5F3F4F5901E89487F883FC03C0C5
:1009E0000915110510F1592C35C0F501A190B190F0
:1009F0006F01612F70E086FC02C06FEF7FEFC501D1
:100A00000E9442088C01E8CFF501A190B1906F01DE
:100A1000612F70E086FC02C06FEF7FEFC5010E947E
:100A200037088C01689487F8D9CFB70180E290E04D
:100A30000E944D089A94D4CFF50187FC859187FEDA
:100A400081915F01B70190E00E944D0851105A94C6
:100A5000015011090115110579F70BCE61917191C2
:100A60006F01072E000C880B990B3ACF082D0F7ED3
:100A70002AE030E0953709F054CDF50107FF23C097
:100A800061917191819191916F01AE014F5F5F4FC3
:100A90005A010E94BF08B82EBA18802EE89487F831
:100AA00037CF983709F04ACD04FD046020E130E0EB
:100AB000E4CF0061F9CF84FC066020E132E0DDCFB5
:100AC00028E030E0DACF619171916F0180E090E031
:100AD000DCCF02FD02C0539433CF5394539430CFF4
:100AE000802F8678811509F42BCFF5CFB70180E2EE
:100AF00090E00E944D08A394A914C0F32BCFA52C1D
:100B0000FBCF512C32CF802F8678811509F43FCF4F
:100B100080E201FD8BE207FD8DE2B70190E035CF69
:100B2000B70180E390E00E944D08115030CF8FEF65
:100B30009FEF07CDF5E0512C9F1670F084E0592C03
:100B4000581A83FC07C0B70180E290E00E944D086C
:100B50005A94C9F7011529F0B701802F90E00E943F
:100B60004D0808E610E043FC02C00CE610E0282D1A
:100B70002071822E7ACD0E94CF050C9481060E94AE
:100B80007A0658F00E94730640F029F45F3F29F07E
:100B90000C946A0651110C94B5060C9470060E94D0
:100BA000920668F39923B1F3552391F3951B550BE6
:100BB000BB27AA2762177307840738F09F5F5F4F30
:100BC000220F331F441FAA1FA9F335D00E2E3AF06F
:100BD000E0E832D091505040E695001CCAF72BD087
:100BE000FE2F29D0660F771F881FBB1F26173707D8
:100BF0004807AB07B0E809F0BB0B802DBF01FF270A
:100C000093585F4F3AF09E3F510578F00C946A0676
:100C10000C94B5065F3FE4F3983ED4F38695779540
:100C20006795B795F7959F5FC9F7880F911D9695C2
:100C3000879597F90895E1E0660F771F881FBB1F1E
:100C4000621773078407BA0720F0621B730B840BCB
:100C5000BA0BEE1F88F7E0950895E89409C097FB5A
:100C60003EF490958095709561957F4F8F4F9F4F83
:100C70009923A9F0F92F96E9BB279395F6958795C7
:100C800077956795B795F111F8CFFAF4BB0F11F48A
:100C900060FF1BC06F5F7F4F8F4F9F4F16C0882331
:100CA00011F096E911C0772321F09EE8872F762F67
:100CB00005C0662371F096E8862F70E060E02AF0A8
:100CC0009A95660F771F881FDAF7880F9695879594
:100CD00097F9089597F99F6780E870E060E00895BC
:100CE0009FEF80EC089500240A9416161706180644
:100CF0000906089500240A94121613061406050620
:100D00000895092E0394000C11F4882352F0BB0FB0
:100D100040F4BF2B11F460FF04C06F5F7F4F8F4F13
:100D20009F4F089557FD9058440F551F59F05F3F4E
:100D300071F04795880F97FB991F61F09F3F79F0FD
:100D400087950895121613061406551FF2CF46957F
:100D5000F1DF08C0161617061806991FF1CF869501
:100D60007105610508940895E894BB2766277727E5
:100D7000CB0197F908950E94CE060C9481060E943B
:100D8000730638F00E947A0620F0952311F00C9437
:100D90006A060C94700611240C94B5060E94920603
:100DA00070F3959FC1F3950F50E0551F629FF001BE
:100DB000729FBB27F00DB11D639FAA27F00DB11DD7
:100DC000AA1F649F6627B00DA11D661F829F222760
:100DD000B00DA11D621F739FB00DA11D621F839FE7
:100DE000A00D611D221F749F3327A00D611D231FBD
:100DF000849F600D211D822F762F6A2F11249F570B
:100E000050409AF0F1F088234AF0EE0FFF1FBB1F0D
:100E1000661F771F881F91505040A9F79E3F5105CC
:100E200080F00C946A060C94B5065F3FE4F3983E9C
:100E3000D4F3869577956795B795F795E7959F5F76
:100E4000C1F7FE2B880F911D9695879597F9089508
:100E50002F923F924F925F926F927F928F929F92CA
:100E6000AF92BF92CF92DF92EF92FF920F931F93B8
:100E7000CF93DF93CDB7DEB7CA1BDB0B0FB6F89469
:100E8000DEBF0FBECDBF09942A88398848885F84A9
:100E90006E847D848C849B84AA84B984C884DF801A
:100EA000EE80FD800C811B81AA81B981CE0FD11DFE
:100EB0000FB6F894DEBF0FBECDBFED010895283008
:100EC00008F027E03327DA01990F311D87FD916083
:100ED00000966105710539F432602E5F3D9330E371
:100EE0002A95E1F708959F3F30F08038710561053C
:100EF00009F03C5F3C5F3D93913008F08068911DA4
:100F0000DF93CF931F930F93FF92EF92192F987F48
:100F10009695E92F96959695E90FFF27E653FF4F93
:100F200099273327EE24FF24A701E70105900894B1
:100F3000079428F4360FE71EF81E491F511D660F4F
:100F4000771F881F991F0694A1F70590079428F42E
:100F5000E70EF81E491F561FC11D770F881F991FE6
:100F6000661F0694A1F70590079428F4F80E491F10
:100F7000561FC71FD11D880F991F661F771F069424
:100F8000A1F70590079420F4490F561FC71FD81FDB
:100F9000990F661F771F881F0694A9F784911095F3
:100FA000177041F0D695C79557954795F794E794F4
:100FB0001A95C1F7E0E7F0E0689415901591359126
:100FC0006591959105907FE27395E118F10A430BC5
:100FD000560BC90BD009C0F7E10CF11E431F561F79
:100FE000C91FD01D7EF4703311F48A95E6CFE894C2
:100FF000015030F0080F0AF40027021708F4202FE0
:101000002395022F7A3328F079E37D932A95E9F727
:1010100010C07D932A9589F6069497956795379524
:1010200017951794E118F10A430B560BC90BD00919
:1010300098F023957E9173957A3308F070E37C9352
:101040002013B8F77E9170617D9330F0839571E342
:101050007D9370E32A95E1F71124EF90FF900F91B3
:101060001F91CF91DF91992787FD90950895FC01FD
:101070000590615070400110D8F7809590958E0FC3
:101080009F1F0895FC016150704001900110D8F736
:10109000809590958E0F9F1F08950F931F93CF9368
:1010A000DF93182F092FEB018B8181FD09C01FEF02
:1010B0000FEF812F902FDF91CF911F910F91089506
:1010C00082FF14C02E813F818C819D8128173907B2
:1010D0003CF4E881F981CF010196998388831083DC
:1010E0008E819F8101969F838E83E3CFE885F9856A
:1010F000812F0995892BA1F3DACFA0E0B0E0E3E8D6
:10110000F8E00C943807AE014B5F5F4FFA01619134
:101110007191AF018091B4019091B5010E94430299
:10112000E2E00C9454070F931F93CF93DF93E09169
:10113000B401F091B501238100E010E021FD0EC063
:101140000FEF1FEFC801DF91CF911F910F9108950D
:101150000995892B11F00FEF1FEFCE01EC0189915A
:101160006091B4017091B501DB011896ED91FC918D
:101170008111EECF8AE00995892B21F3E1CFFA01A5
:10118000AA27283051F1203181F1E8946F936E7FC6
:101190006E5F7F4F8F4F9F4FAF4FB1E03ED0B4E0B7
:1011A0003CD0670F781F891F9A1FA11D680F791FF8
:1011B0008A1F911DA11D6A0F711D811D911DA11D09
:1011C00020D009F468943F912AE0269F1124301919
:1011D000305D3193DEF6CF010895462F4770405DB4
:1011E0004193B3E00FD0C9F7F6CF462F4F70405D63
:1011F0004A3318F0495D31FD4052419302D0A9F7BE
:10120000EACFB4E0A6959795879577956795BA95B7
:10121000C9F700976105710508959B01AC010A2E7D
:1012200006945795479537952795BA95C9F7620F54
:0E123000731F841F951FA01D0895F894FFCF13
:10123E0000000002000000006F0100000000506579
:10124E0072696F64206D6561737572656D656E741C
:10125E00207573696E6720746865206672656520F7
:10126E0072756E6E696E6720636F756E746572202F
:10127E006F662074696D657220312E0A436F6E6E33
:10128E00656374207369676E616C20746F205042C1
:10129E0031202870696E203135292E00663D256675
:1012AE00487A2028636F756E743D256C7529200A67
:1012BE0000433D2566207546200A001B5B41004E0B
:1012CE004F205349474E414C2020202020202020E3
:1012DE00202020202020202020202020200D000053
:00000001FF
