:100000000C94B5000C94D2000C94D2000C94D20045
:100010000C94D2000C94D2000C94D2000C94D20018
:100020000C94D2000C94D2000C94D2000C94D20008
:100030000C94D2000C94D2000C94D2000C94D200F8
:100040000C94D2000C94D2000C94D2000C94D200E8
:100050000C94D2000C94D2000C94D2000C94D200D8
:100060000C94D2000C94D2006E616E00696E660032
:1000700000407A10F35A00A0724E18090010A5D45F
:10008000E80000E87648170000E40B54020000CABC
:100090009A3B000000E1F505000080969800000002
:1000A00040420F000000A086010000001027000061
:1000B0000000E803000000006400000000000A00E7
:1000C000000000000100000000002C76D888DC67EA
:1000D0004F0823DFC1DFAE59E1B1B796E5E3E45342
:1000E000C63AE651997696E8E6C28426EB898C9B5F
:1000F00062ED407C6FFCEFBC9C9F40F2BAA56FA5FF
:10010000F490055A2AF75C936B6CF9676DC11BFC80
:10011000E0E40D47FEF520E6B500D0ED902E03009B
:10012000943577050080841E080000204E0A0000E8
:1001300000C80C333333330F986E12831141EF8DA7
:100140002114893BE65516CFFEE6DB18D1844B38E7
:100150001BF77C1D901DA4BBE424203284725E2218
:100160008100C9F124ECA1E53D2711241FBECFEF8A
:10017000D8E0DEBFCDBF12E0A0E0B1E0ECE9F6E1EF
:1001800002C005900D92A232B107D9F722E0A2E297
:10019000B2E001C01D92AD32B207E1F70E94B20396
:1001A0000C944C0B0C94000020918400309185003D
:1001B0008091840090918500821B930B80389E4330
:1001C000B8F30895CF93DF93EC01209719F4DF91F2
:1001D000CF9108950E94D4002197F7CF9C0181E030
:1001E00086BB86E090E019992BC081E086BB86E053
:1001F00090E0199B2FC081E086BB40918400509114
:10020000850060E070E080E090E0E1E08217930715
:100210008CF120918400309185002417350710F46B
:1002200061507109072E000C880B990BCB017727C1
:100230006627241B350B620F731F811D911D0895C6
:10024000B09BD1CF41E046BB019769F660E070E01A
:10025000CB010895B09BCDCF41E046BB0197B1F3F0
:10026000C8CFB09B07C0E6BB6F5F7F4F6130F4E043
:100270007F0764F71999F5CF199B02C00196C6CF85
:10028000B09BFACFE6BB6F5F7F4F6130F4E07F0732
:100290009CF3DCCFFC016230710508F049C080811D
:1002A000803509F045C081812281022E000C330B7C
:1002B000205331098334C1F0843451F18234C1F5C3
:1002C00034B181E090E001C0880F2A95EAF7232F2E
:1002D000282B24B995B16130710519F4892B85B9A2
:1002E000089580958923FBCF37B181E090E001C06C
:1002F000880F2A95EAF7232F282B27B998B1613068
:10030000710519F4892B88B9089580958923FBCF4D
:100310003AB181E090E001C0880F2A95EAF7232FD7
:10032000282B2AB99BB16130710519F4892B8BB93F
:10033000089580958923FBCF0F931F93CF93DF936D
:10034000CDB7DEB7C055D1090FB6F894DEBF0FBEEA
:10035000CDBF8C011F938F938EE091E09F938F937D
:100360000E94A50A429885E090E00E94E20081E3A5
:1003700090E00E94BB0AC8010E94820382E390E0E1
:100380000E94BB0A6FE470E08E010F5F1F4FC8012F
:100390000E948E0383E390E00E94BB0A8AE090E013
:1003A0000E94E20084E390E00E94BB0A429A85E347
:1003B00090E00E94BB0A1F930F938AE191E09F9304
:1003C0008F930E94A50A86E390E00E94BB0A0FB6B5
:1003D000F894DEBF0FBECDBFC05BDF4F0FB6F89401
:1003E000DEBF0FBECDBFDF91CF911F910F9108955A
:1003F00089E291E00E949C0187E391E00E949C01C8
:1004000080E491E00E949C018AE491E00E949C01BA
:1004100084E591E00E949C018EE591E00E949C01A0
:1004200087E691E00E949C0181E791E00C949C0199
:1004300080E091E090932A0280932902519A50988B
:100440001092C50080E18093C400E1ECF0E080816F
:100450008860808380818061808386E08093C20091
:10046000E0ECF0E080818260808308959091C0008C
:1004700095FFFCCF8093C6000895CF93C82F8A3094
:1004800019F48DE00E9436028C2F0E94360280E023
:1004900090E0CF9108958091C00087FFFCCF8091BC
:1004A000C60008958091C000881F8827881F08957E
:1004B000CF93DF93EC018991811103C0DF91CF913C
:1004C00008950E943602F7CFCF92DF92EF92FF920B
:1004D0001F93CF93DF93EC01E12CF12C6150710954
:1004E0006B010E944B02182F0E9436021A3051F401
:1004F0001882C701DF91CF911F91FF90EF90DF909D
:10050000CF9008951D30A1F319938FEFE81AF80AE0
:10051000CE14DF0431F7ECCF5C9A85ED8A95F1F7C4
:1005200000005C980895CF93C82F87FF1FC05D9A85
:10053000C6FF1EC05E9AC5FF1DC05F9AC4FF1CC0E7
:10054000289A0E948C0285ED8A95F1F70000C3FF7E
:1005500015C05D9AC2FF14C05E9AC1FF13C05F9AB6
:10056000C0FF12C0289ACF910C948C025D98E0CF06
:100570005E98E1CF5F98E2CF2898E3CF5D98EACF0D
:100580005E98EBCF5F98ECCF2898EDCF5B9A0E94F6
:1005900093028FE39FE10197F1F700C000000895F7
:1005A0005B980E9493028FE19EE40197F1F700C0EF
:1005B000000008955C982FEF89EF90E02150804073
:1005C0009040E1F700C0000083E30E94D00283E383
:1005D0000E94D00282E30E94D00288E20E94D002F0
:1005E0008CE00E94D00281E00E94D0022FEF89EFC0
:1005F00090E0215080409040E1F700C00000089555
:10060000FF920F931F93CF93DF93D82FC92FF42E10
:1006100080EC623009F080E80E94D0028FE19EE415
:100620000197F1F700C000000D2F1C2FC0E0D0E0B3
:10063000F80181918F01811108C0F1100EC0DF9186
:10064000CF911F910F91FF9008950E94C6022196AD
:10065000EFCF80E20E94C6022196C031D105CCF3D3
:10066000EECF539A5B9A529808955B98E0EAF1E0D6
:100670003197F1F700C098E080FF10C05B9A869533
:10068000E0EAF1E03197F1F700C09A95A9F75B9A9B
:1006900080EA91E00197F1F700C008955B98EFCFF1
:1006A000CF9382E490E00E94BB0AC9B1C470C1112B
:1006B000FCCF83E490E00E94BB0A80E792E00197C0
:1006C000F1F700C0000088E0C6954A99C068E0EAEA
:1006D000F1E03197F1F700C08A95B1F780912602D9
:1006E000813019F48C2F0E943503C53031F481E03C
:1006F000809326028C2FCF910895C630D9F710929F
:100700002602F8CFCF93DF93EC018991811103C0CA
:10071000DF91CF9108950E943503F7CFEF92FF92BA
:100720000F931F93CF93DF93EC018B0101501109BD
:1007300081E490E00E94BB0A0E9450038A3041F499
:100740001882DF91CF911F910F91FF90EF90089544
:100750008D30B1F30E151F0599F389938FEFE81AC9
:10076000F80AE6CFCDB7DEB7C055D1090FB6F89479
:10077000DEBF0FBECDBF86E192E09093230280934F
:10078000220283E084B988E187B9549A289A80913B
:10079000810081608093810080916F0082608093EE
:1007A0006F000E94180278942198299A0E943103C0
:1007B0008091810081608093810084EF91E00E94AC
:1007C000E2008BE791E00E94C20A0E94F8018CEFE0
:1007D000E82E81E0F82E99EDC92E91E0D92E2EEE6B
:1007E000A22E21E0B22E08EF11E084E690E00E94F4
:1007F000EE002B013C0114141504160417040CF030
:100800005CC0C301B2010E94500820E23CEB4EEBF9
:100810005EE40E94DC079B01AC0160E070E080E8D0
:100820009FE30E94DC071B014C017F926F925F9255
:100830004F929F928F933F926F93DF92CF920E943D
:10084000A50A20E030E74EE955E4622D732D882D8E
:10085000992D0E94DC089B01AC016CEE71E588EBE0
:100860009FE30E94DC0720E034E244E759E40E9461
:10087000DC089F938F937F936F93BF92AF920E94F8
:10088000A50A1F930F930E94A50A1F930F930E941E
:10089000A50A0FB6F894DEBF0FBECDBF6CE172E0C3
:1008A000CE0101960E94630ACE0101960E94820346
:1008B00088EC90E00E94E20098CFFF92EF920E94B5
:1008C000A50A0F900F90EACFADE0B0E0EAE6F4E0C1
:1008D0000C9449097C013B015A01FC0117821682E4
:1008E000838181FF45C3F7012381F30123FD8591B6
:1008F00023FF81913F01811509F441C0853239F40C
:1009000023FD959123FF91913F01953239F4B70171
:1009100090E00E94750A65015601E5CF10E0912C28
:10092000812CF0E28F1608F03CC09B3279F160F424
:10093000903271F1933291F19E3209F048C086FCF9
:100940001EC0689486F806C09D3229F1903359F58F
:10095000689480F8F30123FD959123FF91913F0165
:100960009111DFCF082D097F903709F4C3C208F039
:10097000B9C2983509F4C0C29F3609F4C2C2F70162
:10098000868197812D96E2E10C946509689481F83F
:10099000689482F8DFCF689483F8DCCF689484F899
:1009A000D9CF87FC1CC080ED890F8A3028F686FEDF
:1009B00006C03AE0139F800D1124182FCBCF4AE0D8
:1009C000949E800D1124982E689485F8C3CF9C3690
:1009D00019F4689487F8BECF983609F4BBCF8BEB37
:1009E000890F833008F041C0689484F8905E86FED9
:1009F00016E0582D5F73852E953609F03EC0689439
:100A000086F887FE44C0812F1C3308F08BE3222434
:100A10002394280E27E0F5016191719181919191C4
:100A20006F01022DAE014F5F5F4F0E9480095C0194
:100A3000498040FE03C00DE243FE09C00BE281FC89
:100A400006C082FA002700F90295000F007EF42DFF
:100A5000FC705F2EF115C1F101118DC224E0512C03
:100A6000921608F49FC283E08BC28BE9890F833012
:100A700008F041C1E89484F8BACF963619F4689426
:100A800087F8BFCF111509F4BCCF1150BACF212F71
:100A9000183010F027E017E0212CBDCF81108052D4
:100AA000B70190E00E94750A0F5F1F4FF801849113
:100AB0008111F4CF511409F42FCFB70180E290E0F7
:100AC0000E94750A5A94F6CF87FE32C0822D8A0D95
:100AD00044FE04C09A81913309F481502224239466
:100AE000181634F4282EF9E08F1710F088E0282E1D
:100AF00087FE46C0C501B7FE02C080E090E00196C7
:100B000001110196111531F0212F30E02F5F3F4F79
:100B1000820F931F8915910514F4592C581A882DAA
:100B20008970811137C051102EC00115E1F134C018
:100B300086FCDECFE12FF0E01A151B043CF02CEF11
:100B4000A2162FEFB20614F0689487F8329641E0AF
:100B500050E04C0F5D1FE40FF51F01C0115011153F
:100B600019F082918033D1F387FE0AC022242394A6
:100B7000210EA116B10414F41A19BACF10E0B8CF9F
:100B800085E090E0BDCFB70180E290E00E94750A59
:100B90005A94C9CF011529F0B701802F90E00E9427
:100BA000750A83FC02C051103EC087FE56C0450145
:100BB000B7FE02C0812C912CC50188199909E1E08A
:100BC000F0E0EC0FFD1FE80FF91FFD87EC879501A2
:100BD000221931091901012F10E011950195110910
:100BE000A814B9043CF12814390424F5EC85FD85DA
:100BF0008181F1E08F1A91082C853D852F5F3F4F51
:100C00003D872C8780169106BCF0B70190E00E94CA
:100C1000750A3FEF8316930619F7B7018EE290E04D
:100C20000E94750ADDCFB70180E390E00E94750A4B
:100C30005A94B9CF80E3DDCFA814B90439F49A816E
:100C4000963348F4953311F444FE05C0B70190E0A3
:100C50000E94750A2FCF81E3F9CF8A81813311F089
:100C6000E89444F8B70190E00E94750A111125C07C
:100C700085E490E084FC02C085E690E0B7010E9424
:100C8000750AB7FC05C0A114B10471F544FE2CC06F
:100C9000B194A194B1088DE2B70190E00E94750A69
:100CA00080E35AE0A516B1040CF5B70190E00E946C
:100CB000750AB701C501C096CBCFB7018EE290E0AF
:100CC0000E94750A1E5F02E0802F0F5FE1E0F0E0F6
:100CD000EC0FFD1FE80FF11D8081B70190E00E942D
:100CE000750A0113F1CFC4CF8BE2D6CF8F5F4AE0F4
:100CF000A41AB108D6CF933609F482C0933709F409
:100D000095C0933509F4A1C0943619F0993609F0CD
:100D1000CEC0F50187FEC3C061917191819191911F
:100D20006F01F82DFF768F2E97FF09C09095809563
:100D3000709561957F4F8F4F9F4F689487F82AE099
:100D400030E0AE014F5F5F4F5A010E94EE0AB82EAD
:100D5000BA185B2C082D86FE0AC00E7FB11638F437
:100D600084FE04C082FC02C0082D0E7E512E04FFBA
:100D7000D8C0FE01EB0DF11D8081803309F0CAC09F
:100D8000097E03FD0EC000FFDBC01B2D591418F4B3
:100D9000190D1519592C892D8519951408F480E021
:100DA000580E591408F0CEC09518592C04FFCCC029
:100DB000B70180E390E00E94750A02FF09C088E550
:100DC00090E001FD02C088E790E0B7010E94750A3B
:100DD000B11608F4C6C0BA940B2D10E00F5F1F4F78
:100DE000CE0101965C01080F191FF80182918F0155
:100DF000B70190E00E94750AA016B106B1F75ACE6D
:100E0000650182E0C80ED11CF5018081898301E073
:100E100010E09E012F5F3F4F5901E89487F883FC53
:100E200003C00915110510F1592C35C0F501A19029
:100E3000B1906F01612F70E086FC02C06FEF7FEF11
:100E4000C5010E946A0A8C01E8CFF501A190B1901A
:100E50006F01612F70E086FC02C06FEF7FEFC5016C
:100E60000E94580A8C01689487F8D9CFB70180E2B4
:100E700090E00E94750A9A94D4CFF50187FC859181
:100E800087FE81915F01B70190E00E94750A5110C1
:100E90005A94015011090115110579F70BCE619192
:100EA00071916F01072E000C880B990B3ACF082D1A
:100EB0000F7E2AE030E0953709F054CDF50107FFA9
:100EC00023C061917191819191916F01AE014F5F4A
:100ED0005F4F5A010E94EE0AB82EBA18802EE8948D
:100EE00087F837CF983709F04ACD04FD046020E138
:100EF00030E0E4CF0061F9CF84FC066020E132E00D
:100F0000DDCF28E030E0DACF619171916F0180E0B0
:100F100090E0DCCF02FD02C0539433CF539453943E
:100F200030CF802F8678811509F42BCFF5CFB7010C
:100F300080E290E00E94750AA394A914C0F32BCF1D
:100F4000A52CFBCF512C32CF802F8678811509F448
:100F50003FCF80E201FD8BE207FD8DE2B70190E01B
:100F600035CFB70180E390E00E94750A115030CF71
:100F70008FEF9FEF07CDF5E0512C9F1670F084E0C6
:100F8000592C581A83FC07C0B70180E290E00E94F8
:100F9000750A5A94C9F7011529F0B701802F90E01E
:100FA0000E94750A08E610E043FC02C00CE610E05F
:100FB000282D2071822E7ACD0E94F0070C94A20871
:100FC0000E949B0858F00E94940840F029F45F3F6B
:100FD00029F00C948B0851110C94D6080C949108AC
:100FE0000E94B30868F39923B1F3552391F3951B3D
:100FF000550BBB27AA2762177307840738F09F5F3A
:101000005F4F220F331F441FAA1FA9F335D00E2EA6
:101010003AF0E0E832D091505040E695001CCAF713
:101020002BD0FE2F29D0660F771F881FBB1F2617D6
:1010300037074807AB07B0E809F0BB0B802DBF01AD
:10104000FF2793585F4F3AF09E3F510578F00C947C
:101050008B080C94D6085F3FE4F3983ED4F3869552
:1010600077956795B795F7959F5FC9F7880F911D9D
:101070009695879597F90895E1E0660F771F881F89
:10108000BB1F621773078407BA0720F0621B730B3C
:10109000840BBA0BEE1F88F7E0950895E89409C019
:1010A00097FB3EF490958095709561957F4F8F4F9B
:1010B0009F4F9923A9F0F92F96E9BB279395F695B1
:1010C000879577956795B795F111F8CFFAF4BB0F2F
:1010D00011F460FF1BC06F5F7F4F8F4F9F4F16C093
:1010E000882311F096E911C0772321F09EE8872F1D
:1010F000762F05C0662371F096E8862F70E060E0D9
:101100002AF09A95660F771F881FDAF7880F969551
:10111000879597F9089597F99F6780E870E060E0F8
:1011200008959FEF80EC089500240A941616170680
:1011300018060906089500240A94121613061406C8
:1011400005060895092E0394000C11F4882352F02B
:10115000BB0F40F4BF2B11F460FF04C06F5F7F4FE3
:101160008F4F9F4F089557FD9058440F551F59F0CA
:101170005F3F71F04795880F97FB991F61F09F3F84
:1011800079F087950895121613061406551FF2CFAD
:101190004695F1DF08C0161617061806991FF1CFFD
:1011A00086957105610508940895E894BB27662724
:1011B0007727CB0197F908950E94EF080C94A208B5
:1011C0000E94940838F00E949B0820F0952311F0AB
:1011D0000C948B080C94910811240C94D6080E944E
:1011E000B30870F3959FC1F3950F50E0551F629FB0
:1011F000F001729FBB27F00DB11D639FAA27F00D70
:10120000B11DAA1F649F6627B00DA11D661F829F96
:101210002227B00DA11D621F739FB00DA11D621F7B
:10122000839FA00D611D221F749F3327A00D611D98
:10123000231F849F600D211D822F762F6A2F11247A
:101240009F5750409AF0F1F088234AF0EE0FFF1FAD
:10125000BB1F661F771F881F91505040A9F79E3F04
:10126000510580F00C948B080C94D6085F3FE4F392
:10127000983ED4F3869577956795B795F795E7955A
:101280009F5FC1F7FE2B880F911D9695879597F963
:1012900008952F923F924F925F926F927F928F921A
:1012A0009F92AF92BF92CF92DF92EF92FF920F93F5
:1012B0001F93CF93DF93CDB7DEB7CA1BDB0B0FB6FF
:1012C000F894DEBF0FBECDBF09942A8839884888BC
:1012D0005F846E847D848C849B84AA84B984C88452
:1012E000DF80EE80FD800C811B81AA81B981CE0F49
:1012F000D11D0FB6F894DEBF0FBECDBFED0108952E
:10130000283008F027E03327DA01990F311D87FDD7
:10131000916000966105710539F432602E5F3D934E
:1013200030E32A95E1F708959F3F30F0803871054A
:10133000610509F03C5F3C5F3D93913008F08068A7
:10134000911DDF93CF931F930F93FF92EF92192F6D
:10135000987F9695E92F96959695E90FFF27E65386
:10136000FF4F99273327EE24FF24A701E7010590BB
:101370000894079428F4360FE71EF81E491F511DE4
:10138000660F771F881F991F0694A1F70590079491
:1013900028F4E70EF81E491F561FC11D770F881F3E
:1013A000991F661F0694A1F70590079428F4F80E7C
:1013B000491F561FC71FD11D880F991F661F771F12
:1013C0000694A1F70590079420F4490F561FC71FF4
:1013D000D81F990F661F771F881F0694A9F784915D
:1013E0001095177041F0D695C79557954795F79486
:1013F000E7941A95C1F7E0E7F0E06894159015912D
:1014000035916591959105907FE27395E118F10A08
:10141000430B560BC90BD009C0F7E10CF11E431F5B
:10142000561FC91FD01D7EF4703311F48A95E6CF84
:10143000E894015030F0080F0AF40027021708F46E
:10144000202F2395022F7A3328F079E37D932A9574
:10145000E9F710C07D932A9589F6069497956795CC
:10146000379517951794E118F10A430B560BC90BE2
:10147000D00998F023957E9173957A3308F070E344
:101480007C932013B8F77E9170617D9330F0839543
:1014900071E37D9370E32A95E1F71124EF90FF90BB
:1014A0000F911F91CF91DF91992787FD9095089516
:1014B000FC010590615070400110D8F7809590951F
:1014C0008E0F9F1F0895FB01DC0101900D920020FB
:1014D000E1F70895FC016150704001900110D8F7C8
:1014E000809590958E0F9F1F08950F931F93CF9314
:1014F000DF93182F092FEB018B8181FD09C01FEFAE
:101500000FEF812F902FDF91CF911F910F910895B1
:1015100082FF14C02E813F818C819D81281739075D
:101520003CF4E881F981CF01019699838883108387
:101530008E819F8101969F838E83E3CFE885F98515
:10154000812F0995892BA1F3DACFA0E0B0E0EBEA77
:10155000FAE00C945909AE014B5F5F4FFA016191BB
:101560007191AF018091290290912A020E94640436
:10157000E2E00C9475096091290270912A020E94A0
:10158000750A08950F931F93CF93DF93E09129027B
:10159000F0912A02238100E010E021FD0EC00FEF40
:1015A0001FEFC801DF91CF911F910F910895099509
:1015B000892B11F00FEF1FEFCE01EC0189916091A3
:1015C000290270912A02DB011896ED91FC9181119C
:1015D000EECF8AE00995892B21F3E1CFFA01AA2702
:1015E000283051F1203181F1E8946F936E7F6E5F66
:1015F0007F4F8F4F9F4FAF4FB1E03ED0B4E03CD014
:10160000670F781F891F9A1FA11D680F791F8A1FF6
:10161000911DA11D6A0F711D811D911DA11D20D05D
:1016200009F468943F912AE0269F11243019305D17
:101630003193DEF6CF010895462F4770405D419308
:10164000B3E00FD0C9F7F6CF462F4F70405D4A3355
:1016500018F0495D31FD4052419302D0A9F7EACF1D
:10166000B4E0A6959795879577956795BA95C9F74C
:1016700000976105710508959B01AC010A2E06943F
:101680005795479537952795BA95C9F7620F731FF8
:0C169000841F951FA01D0895F894FFCF43
:10169C0000000002000000003D0200000000436F4B
:1016AC006D6D616E643A20257300526573706F6EB8
:1016BC0073653A2025730D0A0041542B4456494456
:1016CC00313335370D0A0041542B5645520D0A0063
:1016DC0041542B424155440D0A0041542B5246496A
:1016EC00440D0A0041542B445649440D0A00415400
:1016FC002B5246430D0A0041542B504F57450D0AAF
:10170C000041542B434C53530D0A00506572696FC2
:10171C0064206D6561737572656D656E742075738B
:10172C00696E672074686520667265652072756ED7
:10173C006E696E6720636F756E746572206F6620BC
:10174C0074696D657220312E0A436F6E6E65637419
:10175C00207369676E616C20746F205042312028B1
:10176C0070696E203135292E00663D2566487A2039
:10177C0028636F756E743D256C7529200A00433DF6
:10178C002566207546200A001B5B41004E4F2053F6
:10179C0049474E414C202020202020202020202072
:1017AC00202020202020202020200D007465737420
:0217BC0000002B
:00000001FF
